:100000000C942A000C9447000C9447000C94470071
:100010000C9447000C9447000C9447000C94470044
:100020000C9447000C9447000C9447000C948600F5
:100030000C9447000C9449000C9447000C94470022
:100040000C9447000C9447000C9447000C94470014
:100050000C94470011241FBECFE5D8E0DEBFCDBF12
:1000600010E0A0E6B0E0E0EEF6E102C005900D92EF
:10007000AE37B107D9F720E0AEE7B0E001C01D927E
:10008000A73CB207E1F70E9431040C946E0B0C946C
:1000900000001F920F920FB60F9211248F939F931F
:1000A000EF93FF938CB18D3011F08A3061F4E091C1
:1000B0007F00F0E0E357FF4F108281E080937E00E5
:1000C00010927F0011C090917F00913358F4E0911D
:1000D0007F0091E09E0F90937F00F0E0E357FF4F89
:1000E000808302C010927F00FF91EF919F918F91CA
:1000F0000F900FBE0F901F90189583B7856083BF38
:1001000084E682BF81E089BF789408951F920F92A0
:100110000FB60F9211248F939F93809187008F5F6A
:10012000809387008091870081E080938600909182
:10013000870080938900909187008093880084E6EF
:1001400083BF9F918F910F900FBE0F901F901895B6
:10015000CF930E946C0584E40E9411052FEE89E480
:1001600092E0215080409040E1F700C000000E94E2
:100170006C058EEB0E9411050E945A05C82F0E9443
:100180005A05682F70E0762F66276C0F711D072EB9
:10019000000C880B990B0E94ED0620E030E040E84F
:1001A0005DE30E94A207CF910895BF9A0895C79A70
:1001B0000895C79808959C018FEF81BB9FB5926AFF
:1001C0009FBD9EB598619EBD37BD26BD08958EB575
:1001D00081608EBD0895AF92BF92CF92DF92EF9271
:1001E000FF920F931F93CF93DF93CDB7DEB7AD97F9
:1001F0000FB6F894DEBF0FBECDBF0E945E04FE01B5
:100200003E968EE0DF011D928A95E9F70E94A800D4
:100210006B017C010E94B5069B01772324F4222701
:100220003327261B370B122F032F072E000C880BAA
:10023000990B0E94ED069B01AC01C701B6010E941B
:10024000430620E030E040E251E40E94A2070E9411
:10025000B5069B01772324F422273327261B370B6F
:10026000A22EB32E20E030E0A901C701B6010E9402
:10027000B006882354F4FE013E9601900020E9F771
:1002800031978DE290E0918380834AE0BE01675D03
:100290007F4F812F902F0E9447088E01025F1F4FD2
:1002A000BE01675D7F4FC8010E942D08F8010190D3
:1002B0000020E9F731978EE290E0918380834AE055
:1002C000BE01675D7F4F8A2D9B2D0E944708BE01AE
:1002D000675D7F4FC8010E942D0881E00E94650480
:1002E0009093C0008093BF0080E00E9465048093DB
:1002F0008B0090938C009F938F930F2EF3E7EF2E3C
:10030000F0E0FF2EF02DFF92EF92CE0101969F9329
:100310008F930E9474088091C0008F938091BF00DA
:100320008F93FF92EF92CE014C969F938F930E94F2
:100330007408C8010E94240688E790E00E94240601
:100340000FB6F894DEBF0FBECDBF809180009091B4
:100350008100892B49F4CE014C960E94240688E73F
:1003600090E00E94240608C0CE0101960E94240657
:1003700088E790E00E9424068091C4008F938091CA
:10038000C3008F9386E790E09F938F938E010B5D60
:100390001F4F1F930F930E947408C8010E942406E8
:1003A00080918200909183000F900F900F900F909A
:1003B0000F900F90009729F48AE790E00E9424069E
:1003C00006C0019721F48CE790E00E94240688E79C
:1003D00090E00E942406AD960FB6F894DEBF0FBEE3
:1003E000CDBFDF91CF911F910F91FF90EF90DF90E4
:1003F000CF90BF90AF9008958091BF009091C000C2
:100400009BBD8ABD6091BF007091C000072E000C9B
:10041000880B990B0E94ED0627E231E348E45FE385
:100420000E94A2070E94B5067093C4006093C300A7
:100430000895CF93DF931F92CDB7DEB7898381E014
:1004400090E0909385008093840089816091BF0043
:100450007091C000681B71091616170604F5072E67
:10046000000C880B990B0E94ED0620E030E040E87C
:100470005EE30E94A2070E94B5069B01772324F445
:1004800022273327261B370B8091C3009091C4008D
:10049000820F931F9093C6008093C50021C07723DD
:1004A000FCF4072E000C880B990B0E94ED0620E04F
:1004B00030E040E85EE30E94A2070E94B5069B017F
:1004C000772324F422273327261B370B8091C30080
:1004D0009091C400821B930B9093C6008093C5003B
:1004E0008091C5009091C600893E934034F088EE1B
:1004F00093E09093C6008093C5008091C5009091D1
:10050000C6009BBD8ABD6091C5007091C600072ED4
:10051000000C880B990B0E94ED0627E231E348E4BA
:100520005FE30E94A2070E94B5067093C400609327
:10053000C3000E94EB000F90DF91CF910895CF92FE
:10054000DF92EF92FF9220916000309161002F3F87
:100550004FEF3407E9F06B017C01B901330F880BD1
:10056000990B0E94ED06A70196010E949D0718169F
:100570004CF40E94D90081E090E090938300809336
:10058000820006C00E94D700109283001092820061
:10059000FF90EF90DF90CF9008958F929F92AF924F
:1005A000BF92FF920F931F93CF93DF93CDB7DEB728
:1005B00068970FB6F894DEBF0FBECDBF0E94A800AB
:1005C0004B015C0142E050E06EE870E0CE01019624
:1005D0000E943808CE0101960E940F089093610096
:1005E0008093600044E050E06FE870E0CE01089630
:1005F0000E943808CE0108960E940F08F82E9F939B
:100600008F9383E790E09F938F938E01015F1F4F3D
:100610001F930F930E9474080E940506C8010E9450
:10062000F6058FE493EC0197F1F700C000000E94FB
:10063000050680918D000F900F900F900F900F90F6
:100640000F90843521F4C501B4010E949F0280916E
:100650008D008C34B9F480918E00803331F4109287
:100660008100109280000E94FC0180918E008133F5
:1006700049F481E090E090938100809380008F2D79
:100680000E94190268960FB6F894DEBF0FBECDBF68
:10069000DF91CF911F910F91FF90BF90AF909F90EE
:1006A0008F900895AF92BF92CF92DF92EF92FF9218
:1006B0000F931F93CF93DF93CDB7DEB7AA970FB6F3
:1006C000F894DEBF0FBECDBF8091C0008F938091A4
:1006D000BF008F9383E790E09F938F938E010F5F0E
:1006E0001F4F1F930F930E947408C8010E94F605C4
:1006F0002FE58AEE90E0215080409040E1F700C065
:1007000000000E9405060E94A8006B017C0185E0A4
:10071000E2E6F0E0DE01559601900D928A95E1F750
:10072000FE017A968CE0DF011D928A95E9F7C701F8
:10073000B6010E94B5069B01772324F422273327B4
:10074000261B370B122F032F072E000C880B990B3B
:100750000E94ED069B01AC01C701B6010E94430651
:1007600020E030E040E251E40E94A2070E94B5067A
:100770009B01772324F422273327261B370BA22E35
:10078000B32E0F900F900F900F900F900F9020E0CE
:1007900030E0A901C701B6010E94B006882354F4D5
:1007A000FE01759601900020E9F731978DE290E007
:1007B000918380834AE0BE016A5D7F4F812F902F35
:1007C0000E9447088E010B5E1F4FBE016A5D7F4F7E
:1007D000C8010E942D08F80101900020E9F7319727
:1007E0008EE290E0918380834AE0BE016A5D7F4F94
:1007F0008A2D9B2D0E944708BE016A5D7F4FC8016C
:100800000E942D08F80101900020E9F7319787E256
:1008100093E49183808312820E94050660E080E069
:100820000E940F06C8010E94F605BFE52AEE80E08F
:10083000B15020408040E1F700C000000E94050652
:10084000AA960FB6F894DEBF0FBECDBFDF91CF9151
:100850001F910F91FF90EF90DF90CF90BF90AF90DE
:1008600008950E9417060E947D000E945E0488EE93
:1008700093E00E94DB000E94E7000E9472050E9444
:10088000D5000E94DD050E94D7008091860081304E
:1008900021F4109286000E945203809189008130D9
:1008A00021F4109289000E94EB0080918800813031
:1008B00061F7109288000E94CD02E7CFD098D198BE
:1008C00086B1876886B93E9A08958770806487B933
:1008D000369A349BFECF349A8FE19EE40197F1F76C
:1008E00000C0000084B195B1089598B321E030E0D4
:1008F000A90100908A0002C0440F551F0A94E2F734
:10090000842F8095892388BB47B3C90100908A0052
:1009100002C0880F991F0A94E2F7842B87BB80EAF4
:100920008A95F1F797B3A90100908A0002C0440F9D
:10093000551F0A94E2F7842F8095892387BB94E1A1
:100940009A95F1F786B300908A0002C0220F331FF8
:100950000A94E2F7822398E89A95F1F700C0089587
:1009600080FF30C0F89438B381E090E0AC01009093
:100970008A0002C0440F551F0A94E2F7242F2095E5
:10098000232328BB47B39C0100908A0002C0220F9A
:10099000331F0A94E2F7242B27BB23E02A95F1F7B3
:1009A0000000789427B300908A0002C0880F991F36
:1009B0000A94E2F78095822387BB82E18A95F1F75A
:1009C00000000895F89438B381E090E0AC01009005
:1009D0008A0002C0440F551F0A94E2F7242F209585
:1009E000232328BB47B39C0100908A0002C0220F3A
:1009F000331F0A94E2F7242B27BB25E12A95F1F750
:100A000000C027B300908A0002C0880F991F0A9483
:100A1000E2F78095822387BB789400C000C0000075
:100A20000895CF93DF93D82FC8E08D2F81700E9457
:100A3000B004D695C150C9F7DF91CF910895F894CD
:100A400038B381E090E0AC0100908A0002C0440F0E
:100A5000551F0A94E2F7242F2095232328BB47B380
:100A60009C0100908A0002C0220F331F0A94E2F713
:100A7000242B27BB00C0000027B300908A0002C0CF
:100A8000880F991F0A94E2F78095822387BB83E041
:100A90008A95F1F7000086B390E000908A0002C0CA
:100AA000959587950A94E2F7817078949FE09A95DE
:100AB000F1F70895CF93DF93D8E0C0E00E941F05BF
:100AC00020E8829FC0011124C695C82BD150B1F7F0
:100AD0008C2FDF91CF9108950E9475048CEC0E94B9
:100AE0001105089511B880E280B984E086BF0895A9
:100AF00084EA86BF06B607FEFDCF089584E986BF67
:100B0000089583B984E886BF06B607FEFDCF089531
:100B10001F93CF93DF93182F107F90E1899FE001FF
:100B200011240E9478058EE40E948105812F846043
:100B30000E948105812F0E9481050E947E050E94EE
:100B400078058EE40E9481058C2F84600E948105C7
:100B50008C2F0E9481050E947E05DF91CF911F910D
:100B600008951F93CF93DF93182F107F90E1899FF3
:100B7000E0011124DC2FD9600E9478058EE40E94E8
:100B80008105812F8D600E948105812F89600E94DF
:100B900081050E947E050E9478058EE40E948105F1
:100BA0008C2F8D600E9481058D2F0E9481050E94EF
:100BB0007E05DF91CF911F9108958FE39CE9019706
:100BC000F1F700C0000082E00E94880588E20E94E0
:100BD00088058CE00E94880586E00E94880581E0F7
:100BE0000E94880580E80E9488050895CF93DF93CE
:100BF000EC018881882331F021960E94B10589910A
:100C00008111FBCFDF91CF91089581E00E9488058B
:100C10008FE99FE00197F1F700C00000089561118E
:100C200002C0805801C080540E948805089510BCFD
:100C300086E089B988E98AB986E880BD7894089504
:100C40005D9BFECF8CB908950F931F93CF93DF93D5
:100C5000FC01808181110AC011C08991882371F043
:100C60000E9420060C171D07C1F708C08F010E94C3
:100C70002006E801219601501F4FEFCFDF91CF9161
:100C80001F910F9108955058BB27AA270E945B0619
:100C90000C9463070E94550738F00E945C0720F00F
:100CA00039F49F3F19F426F40C9452070EF4E095A2
:100CB000E7FB0C944C07E92F0E94740758F3BA170E
:100CC000620773078407950720F079F4A6F50C9462
:100CD00096070EF4E0950B2EBA2FA02D0B01B9014B
:100CE00090010C01CA01A0011124FF27591B99F0A2
:100CF000593F50F4503E68F11A16F040A22F232FAE
:100D0000342F4427585FF3CF469537952795A795FD
:100D1000F0405395C9F77EF41F16BA0B620B730BA4
:100D2000840BBAF09150A1F0FF0FBB1F661F771F15
:100D3000881FC2F70EC0BA0F621F731F841F48F4CA
:100D4000879577956795B795F7959E3F08F0B0CF53
:100D50009395880F08F09927EE0F9795879508953A
:100D60000E94280708F481E008950E94BC06689458
:100D7000B1110C94970708950E947C0788F09F5743
:100D800098F0B92F9927B751B0F0E1F0660F771FAF
:100D9000881F991F1AF0BA95C9F714C0B13091F0A5
:100DA0000E949607B1E008950C949607672F782F5C
:100DB0008827B85F39F0B93FCCF38695779567956A
:100DC000B395D9F73EF490958095709561957F4FD6
:100DD0008F4F9F4F0895E89409C097FB3EF490957C
:100DE0008095709561957F4F8F4F9F4F9923A9F004
:100DF000F92F96E9BB279395F69587957795679593
:100E0000B795F111F8CFFAF4BB0F11F460FF1BC0D6
:100E10006F5F7F4F8F4F9F4F16C0882311F096E969
:100E200011C0772321F09EE8872F762F05C0662317
:100E300071F096E8862F70E060E02AF09A95660FD0
:100E4000771F881FDAF7880F9695879597F9089589
:100E5000990F0008550FAA0BE0E8FEEF16161706CB
:100E6000E807F907C0F012161306E407F50798F033
:100E7000621B730B840B950B39F40A2661F0232B4C
:100E8000242B252B21F408950A2609F4A140A695C8
:100E90008FEF811D811D089597F99F6780E870E0AD
:100EA00060E008959FEF80EC089500240A941616E0
:100EB000170618060906089500240A941216130648
:100EC000140605060895092E0394000C11F48823D6
:100ED00052F0BB0F40F4BF2B11F460FF04C06F5FF2
:100EE0007F4F8F4F9F4F089557FD9058440F551FC8
:100EF00059F05F3F71F04795880F97FB991F61F09C
:100F00009F3F79F087950895121613061406551F12
:100F1000F2CF4695F1DF08C0161617061806991F7E
:100F2000F1CF86957105610508940895E894BB2773
:100F300066277727CB0197F908950E94280708F4C0
:100F40008FEF08950E94B5070C9463070E94550720
:100F500038F00E945C0720F0952311F00C944C07A8
:100F60000C94520711240C9497070E94740770F395
:100F7000959FC1F3950F50E0551F629FF001729F3E
:100F8000BB27F00DB11D639FAA27F00DB11DAA1F4D
:100F9000649F6627B00DA11D661F829F2227B00D9A
:100FA000A11D621F739FB00DA11D621F839FA00D25
:100FB000611D221F749F3327A00D611D231F849F75
:100FC000600D211D822F762F6A2F11249F575040CC
:100FD0009AF0F1F088234AF0EE0FFF1FBB1F661F47
:100FE000771F881F91505040A9F79E3F510580F010
:100FF0000C944C070C9497075F3FE4F3983ED4F3AE
:10100000869577956795B795F795E7959F5FC1F7B3
:10101000FE2B880F911D9695879597F90895FC01F1
:1010200088279927E89421912032E9F3293010F09C
:101030002E30C8F32B3241F02D3239F4689404C0BD
:101040000E945208820F911D219120532A30C0F333
:101050001EF4909581959F4F0895FB01DC010D9042
:101060000020E9F7119701900D920020E1F7089513
:10107000FB01DC014150504048F001900D920020EE
:10108000C9F701C01D9241505040E0F70895BB27B9
:101090004A3031F4992322F4BDE2909581959F4F17
:1010A0000C945B087AE0979F902D879F802D910D7F
:1010B00011240895BB27FB015527AA27880F991FE4
:1010C000AA1FA41710F0A41B83955051B9F7A05D77
:1010D000AA3308F0A95DA193009779F7B111B193F4
:1010E0001192CB010C948D0AAEE0B0E0EAE7F8E093
:1010F0000C94450B0D891E8986E08C831A83098325
:101100008FEF9FE79E838D83AE01475E5F4F6F89B0
:10111000788DCE0101960E949608EF81F885E00F48
:10112000F11F10822E96E4E00C94610BABE0B0E06E
:10113000ECE9F8E00C94370B6C017B018A01FC01AF
:1011400017821682838181FFCCC1CE0101963C01BA
:10115000F6019381F70193FD859193FF81917F01C2
:10116000882309F4BAC1853239F493FD859193FF40
:1011700081917F01853229F4B60190E00E949D0A99
:10118000E7CF912C212C312CFFE1F315D8F08B32D5
:1011900079F038F4803279F08332A1F4232D206184
:1011A0001DC08D3261F0803369F4232D216016C09B
:1011B000832D8260382EE32DE4603E2E2AC0F32D6D
:1011C000F8601DC037FC2DC020ED280F2A3040F0FC
:1011D0008E32B9F436FC81C1232D2064322E19C021
:1011E00036FE06C08AE0989E200D1124922E11C072
:1011F000EAE02E9E200D1124222EF32DF0623F2EC8
:1012000008C08C3621F4832D8068382E02C08836C1
:1012100041F4F70193FD859193FF81917F01811145
:10122000B3CF982F9F7D9554933028F40C5F1F4FB8
:101230009FE399830DC0833631F0833771F0833596
:1012400009F059C021C0F801808189830E5F1F4FCA
:1012500088248394912C530113C02801F2E04F0E8F
:10126000511CF801A080B18036FE03C0692D70E0EA
:1012700002C06FEF7FEFC5010E94820A4C0182011C
:10128000F32DFF773F2E16C0280122E0420E511C9D
:10129000F801A080B18036FE03C0692D70E002C065
:1012A0006FEF7FEFC5010E94770A4C01F32DF068C4
:1012B0003F2E820133FC1BC0822D90E088169906D8
:1012C000B0F4B60180E290E00E949D0A2A94F4CF27
:1012D000F50137FC859137FE81915F01B60190E001
:1012E0000E949D0A21102A9421E0821A91088114FB
:1012F000910471F7E8C0843611F0893641F5F801A0
:1013000037FE07C060817181828193810C5F1F4F1E
:1013100008C060817181072E000C880B990B0E5F4D
:101320001F4FF32DFF763F2E97FF09C090958095B4
:10133000709561957F4F8F4F9F4FF0683F2E2AE049
:1013400030E0A3010E94D90A882E861845C085374F
:1013500031F4232D2F7EB22E2AE030E025C0932DCC
:10136000997FB92E8F36C1F018F4883579F0B5C061
:10137000803719F0883721F0B0C0E92FE061BE2E28
:10138000B4FE0DC0FB2DF460BF2E09C034FE0AC0B0
:10139000292F2660B22E06C028E030E005C020E1EB
:1013A00030E002C020E132E0F801B7FE07C0608102
:1013B0007181828193810C5F1F4F06C060817181B2
:1013C00080E090E00E5F1F4FA3010E94D90A882E93
:1013D0008618FB2DFF773F2E36FE0DC0232D2E7F66
:1013E000A22E891458F434FE0BC032FC09C0832DA0
:1013F0008E7EA82E05C0B82CA32C03C0B82C01C02B
:10140000B92CA4FE0FC0FE01E80DF11D80818033D0
:1014100021F49A2D997EA92E09C0A2FE06C0B3948C
:10142000B39404C08A2D867809F0B394A3FC11C04C
:10143000A0FE06C0B21488F4280C922C9B180EC093
:10144000B21460F4B60180E290E00E949D0AB39469
:10145000F7CFB21418F42B1802C0982C212CA4FE3C
:1014600010C0B60180E390E00E949D0AA2FE17C062
:10147000A1FC03C088E790E002C088E590E0B601D7
:101480000CC08A2D867859F0A1FE02C08BE201C003
:1014900080E2A7FC8DE2B60190E00E949D0A8914CB
:1014A00038F4B60180E390E00E949D0A9A94F7CF49
:1014B0008A94F301E80DF11D8081B60190E00E944D
:1014C0009D0A8110F5CF222009F442CEB60180E2B8
:1014D00090E00E949D0A2A94F6CFF60186819781BA
:1014E00002C08FEF9FEF2B96E2E10C94530BFC01AF
:1014F0000590615070400110D8F7809590958E0F3F
:101500009F1F0895FC016150704001900110D8F7B1
:10151000809590958E0F9F1F0895DC01FC01672F29
:1015200071917723E1F7329704C07C916D937083BA
:101530006291AE17BF07C8F308950F931F93CF931F
:10154000DF93FB01238121FD03C08FEF9FEF2CC0B0
:1015500022FF16C0468157812481358142175307E7
:1015600044F4A081B1819D012F5F3F4F31832083DF
:101570008C93268137812F5F3F4F3783268314C09A
:101580008B01EC01FB010084F185E02D0995892B8D
:10159000E1F6D80116968D919C91179701961796B2
:1015A0009C938E931697CE01DF91CF911F910F914F
:1015B0000895FA01AA27283051F1203181F1E894E9
:1015C0006F936E7F6E5F7F4F8F4F9F4FAF4FB1E036
:1015D0003ED0B4E03CD0670F781F891F9A1FA11D31
:1015E000680F791F8A1F911DA11D6A0F711D811D32
:1015F000911DA11D20D009F468943F912AE0269FF7
:1016000011243019305D3193DEF6CF010895462F55
:101610004770405D4193B3E00FD0C9F7F6CF462F36
:101620004F70405D4A3318F0495D31FD405241939F
:1016300002D0A9F7EACFB4E0A6959795879577955C
:101640006795BA95C9F700976105710508959B01E3
:10165000AC010A2E06945795479537952795BA956C
:10166000C9F7620F731F841F951FA01D08952F9245
:101670003F924F925F926F927F928F929F92AF9222
:10168000BF92CF92DF92EF92FF920F931F93CF936F
:10169000DF93CDB7DEB7CA1BDB0B0FB6F894DEBF06
:1016A0000FBECDBF09942A88398848885F846E842C
:1016B0007D848C849B84AA84B984C884DF80EE8076
:1016C000FD800C811B81AA81B981CE0FD11D0FB67F
:1016D000F894DEBF0FBECDBFED010895F894FFCFA3
:1016E000FFFF54203D20000000000000000000002B
:0E16F000000000256400256420003000310059
:00000001FF
